:4000000000800020110000004D0400004D04000008B5044B1A6803F53F5302331A6000F017FA00BFFA46004010B5054C237833B9044B13B10448AFF300800123237010BDC4
:400040003081FF1F00000000101C0000084B10B51BB108480849AFF300800848036803B910BD074B002BFBD0BDE81040184700BF00000000101C00003481FF1F0881FF1F99
:400080000000000008B50020062100F033FD044B186801F063FD80B200F04AFD08BD00BF6081FF1F38B5104C4FF07E50216801F043FC0E4B186065684FF07E50294601F0F6
:4000C0007DFAA16801F038FC094B18602846E16801F032FC074B18600022074B1A600022064B1A7038BD00BF0C81FF1F7081FF1F8481FF1F8081FF1F5081FF1F6481FF1F62
:4001000008B50123037000F077FDC043C0B200F067FD08BD03780BB104230370704700BF10B50C464FF0974101F052FB01F016FD00F0C0FE04A3D3E9002301F05BF801F059
:40014000C9F9206010BD00BF000000000070D740F8B506460D4614461F4600F061FDC043C0B200F051FD4FF07E50314601F0E4FB01462B78042B3AD8DFE803F0030618398B
:4001800029000023236032E0384601F021FB216801F016FA20604FF07E5101F0CBFC30B34FF07E53236002232B7020E0069801F00FFB0146206801F001FA2060079901F068
:4001C000AFFCA0B1079B236003232B700FE0089801F0FEFA0146206801F0F0F92060002101F09EFC18B10023236000232B702068F8BD00BF30B585B01B4A1C4B19681368C5
:400200000B4423F07F431360DB0C194A1370194AD35C194D2B70194B1B68194A12680092184A52680192184A1268029217481849184AFFF78DFF0446174B18602878803832
:4002400001F072FA0146204601F0C2FA4FF0864101F0B6F901F082FCC0B2104B187000F0B7FA05B030BD00BF6881FF1F7881FF1F5C81FF1F141C00005481FF1F7081FF1F10
:400280008481FF1F0C81FF1F8081FF1F0080BB466481FF1F5081FF1F6C81FF1F7C81FF1F2DE9F04105460C46434901EB8202106A18600699FFF734FF204601F031FA014655
:4002C0003E4801F039FB0446284601F029FA01464FF0814001F030FB0146394B1860204601F076FA374B186001F038FC00F0E2FD0022354B00F0A2FC01F0ECF8044601F0EC
:400300000FFA8046314901F063FA0546304901F01BFC00B12E4D2F4B1D60204600F0CAFD06460F4600222C4B01F0ACF848B9304639461DA3D3E9002300F032FE01F0EAF8C3
:4003400000E00020234BD860B32C04D84046234901F03EFA13E03046394615A3D3E9002300F01EFE06460F4600221D4B01F0A8F820B93046394601F0CDF800E01948154D93
:40038000A8600798FFF7BCFE204600F0E5F90798FFF7C0FEE86801F0E1FB00F0DDF9BDE8F08100BFAFF300809A9999999999A93F9A9999999999C93F141C000000606A4726
:4003C0005881FF1F6081FF1F0000E03F8FC2F53D0000B4420C81FF1F00406F40295C8F3D00805B400000DC4200B583B062B6FFF759FE00F071FB012000F022FB0D4800F02F
:4004000011FB0D4800F046FA0C4800F0DBFB00F015FAFF2000F0DCF9094B0093094B0193022078210022084BFFF73AFF642000F093F9F1E7641C0000F5010000850000002D
:400440007881FF1F6481FF1F1C81FF1FFEE700BF08B5104E104D16E029686B68AC68002204E051F8040B43F8040B0432A242F8D1E868002203E0002143F8041B04328242C8
:40048000F9D11035013E002EE6D101F087FBFFF7ABFFFEE701000000C81C000008B5124A124B1A60124A136843F40073136000230AE0032B03D80F4A52F8231000E00E4925
:4004C0000E4A42F8231001332F2BF2D90C4B1A780C4B1A70094A0C4B1A6000F0BDF800220A4B1A6008BD00BF0004FA050CED00E014ED00E0000000004D0400000080FF1F2A
:40050000BC7600400481FF1F08ED00E00081FF1FFEE700BFF0B40022174611E050F82760F3B226F0FF0608E001EB420511F812406D78A5550132013BDBB2002BF4D1013772
:40054000062FEBD9F0BC70470A4B1B78DBB203F00701094A11701B09013213700123A2F20272137002F6131213704422034B1A70704700BFCF0100496E58004076580040D1
:4005800008B50A46002101F03AFB08BD38B57C22274B1A80192502331D7040F2F31202331A801B2202331A70022203F27A231A7008224FF040231A70032103F500731970DB
:4005C0001C4B1B78DBB21C490B701C4B1A8041F25122023B1A8000240CE0194B1B7803F0010343EA440404F003044FF4F07000F0A3F8013D0DB1032CEFD115B90320FFF7A8
:4006000087FF104B4FF480721A8007221A7000220D490A704820023108701A700222033B1A700A4A137843F00303137038BD00BF8040004008010049A14600402242004070
:40064000254200400440004006400040A243004008B501F0C9FA08BD70B572B6284A137843F00403137000240CE0264963001A1952000A4423445B00C8589188FFF780FF42
:400680000134E4B2082CF0D94FF090401E49FFF741FF1E4A137843F0020313701032137843F0020313701A4C237843F040032370A2F58632513A137843F0100313701548FB
:4006C00015490822FFF7C4FF144815490822FFF7BFFF144A137843F008031370124E01253570FFF753FF81233370104B1D70FFF72BFF0F4821460E22FFF7AAFF70BD00BF3C
:40070000E84600406C1C00001C00004803500140A04300402251004034000048625100403C000048224300400048004004000840B0430040000000000230800803D000BF0A
:4007400001380046FCD17047EFF3108072B6704780F31088704700BF10B5044605E0084B1868FFF7E9FFA4F50044B4F5004FF6D8034B586800FB04F0FFF7DEFF10BD00BF00
:400780002081FF1F08B5034B1B7A03FB00F0FFF7D3FF08BD2081FF1F054A137843F0010313701032137843F001031370704700BFA8430040054B1A7802F0FD021A701A78F5
:4007C00000F0020010431870704700BF20580040014B1870704700BF805B0040064B1B78C3F3810303F19243063393F82031DBB2024A1370704700BF205800400846004085
:4008000008B5064B1A7802F0F3021A701A7800F00C0010431870FFF7E1FF08BD2058004008B50020044B187001331870FFF7E8FF0220FFF7BFFF08BD2058004008B5074B3C
:400840001B7823B9FFF7ECFF0122044B1A70FFF7A3FF6420FFF7BCFF08BD00BF4C81FF1F014B1B685864704708ED00E04001C0B2014B1870704700BF01E400E00222014BA7
:400880001A60704700E100E00222014B1A60704780E100E010B50446FFF7F6FF2046FFF7DFFF0020FFF7E2FFFFF7E8FF10BD00BF10B50B4C237803F09F032370237803F063
:4008C000F00323702378184340F0100020700120FFF758FF237803F0EF03237010BD00BF2051004038B505460E4C237843F020032370237803F0BF0323700020FFF742FF9E
:40090000237803F0F003237023781D4345F0100525700120FFF736FF237803F0EF03237038BD00BF2051004070B5354B1A7802F08002D2B21A7033490A7802F0F00242F038
:400940000F020A7001310A7802F0F0020A7001310A7802F0F0020A701A7802F0DF021A701A7842F040021A704FF4CA760020FFF709FF234D2B7843F010032B700120FFF79D
:4009800001FF214B1C78E4B22B7803F0EF032B700020FFF7F7FE04F00804E4B22B7843F010032B700120FFF7EDFE2B7803F0EF032B7014B90A20FFF7E5FE013E0CB1002E3A
:4009C000D4D10F4A137803F0BF031370137803F08003DBB213700232137803F0F00313700132137803F0F00343F00F0313700132137803F0F00343F00F03137070BD00BF39
:400A000020510040225100402151004010B50446FFF78AFF2009FFF765FF04F00F00FFF761FF10BD38B505460078012404E0FFF7EDFF285D0134E4B20028F8D138BD00BFD9
:400A400010B50446FFF770FF2009FFF731FF04F00F00FFF72DFF10BD08B52820FFF77CFE0320FFF725FF0520FFF776FE0320FFF71FFF0F20FFF770FE0320FFF719FF012064
:400A8000FFF76AFE0220FFF713FF0520FFF764FE0620FFF7D5FF0E20FFF7D2FF2C20FFF7CFFF0820FFF7CCFF0120FFF7C9FF0C20FFF7C6FF0320FFF7C3FF0520FFF74CFE4D
:400AC00008BD00BF08B50C20FFF7BAFF0122014B1A7008BD4D81FF1F08B5054B5B7823B9FFF7BAFF0122024B5A70FFF7EBFF08BD4D81FF1F08B5032819D8DFE800F0020761
:400B00000D1381F08000FFF79BFF08BDA1F14000C0B2FFF795FF08BDA1F16C00C0B2FFF78FFF08BDA1F12C00C0B2FFF789FF08BD00B585B000238DF80E30092210E0134B47
:400B4000A3FB0013DB08194603EB83035B00C31A303304A8104400F80C3C0846013AD2B20928ECD8094BA3FB0013DB0803EB83035B00C31A303304A9114401F80C3C01AB4B
:400B80009818FFF74FFF05B05DF804FBCDCCCCCC014B1B681864704708ED00E04001C0B2014B1870704700BF00E400E00122014B1A60704700E100E00122014B1A6070476E
:400BC00080E100E010B50446FFF7F6FF2046FFF7DFFF0720FFF7E2FFFFF7E8FF10BD00BF044A137803F0F703C00000F0080018431070704760510040024B1878C0F3C000C8
:400C0000704700BF61510040044A137803F0FB03800000F0040018431070704760510040024B1878C0F38000704700BF6151004081F0004102E000BF83F0004330B54FEAEC
:400C400041044FEA430594EA050F08BF90EA020F1FBF54EA000C55EA020C7FEA645C7FEA655C00F0E2804FEA5454D4EB5555B8BF6D420CDD2C4480EA020281EA030382EA9C
:400C8000000083EA010180EA020281EA0303362D88BF30BD11F0004F4FEA01314FF4801C4CEA113102D0404261EB410113F0004F4FEA03334CEA133302D0524263EB430324
:400CC00094EA050F00F0A780A4F10104D5F1200E0DDB02FA0EFC22FA05F2801841F1000103FA0EF2801843FA05F359410EE0A5F120050EF1200E012A03FA0EFC28BF4CF062
:400D0000020C43FA05F3C01851EBE37101F0004507D54FF0000EDCF1000C7EEB00006EEB0101B1F5801F1BD3B1F5001F0CD349085FEA30004FEA3C0C04F101044FEA445221
:400D400012F5800F80F09A80BCF1004F08BF5FEA500C50F1000041EB045141EA050130BD5FEA4C0C404141EB010111F4801FA4F10104E9D191F0000F04BF01460020B1FA5E
:400D800081F308BF2033A3F10B03B3F120020CDA0C3208DD02F1140CC2F10C0201FA0CF021FA02F10CE002F11402D8BFC2F1200C01FA02F120FA0CFCDCBF41EA0C0190403D
:400DC000E41AA2BF01EB0451294330BD6FEA04041F3C1CDA0C340EDC04F11404C4F1200220FA04F001FA02F340EA030021FA04F345EA030130BDC4F10C04C4F1200220FA27
:400E000002F001FA04F340EA0300294630BD21FA04F0294630BD94F0000F83F4801306BF81F480110134013D4EE77FEA645C18BF7FEA655C29D094EA050F08BF90EA020FC3
:400E400005D054EA000C04BF1946104630BD91EA030F1EBF0021002030BD5FEA545C05D14000494128BF41F0004130BD14F580043CBF01F5801130BD01F0004545F0FE41D1
:400E800041F470014FF0000030BD7FEA645C1ABF194610467FEA655C1CBF0B46024650EA013406BF52EA033591EA030F41F4002130BD00BF90F0000F04BF0021704730B5C5
:400EC0004FF4806404F132044FF000054FF0000150E700BF90F0000F04BF0021704730B54FF4806404F1320410F0004548BF40424FF000013EE700BF42004FEAE2014FEA3C
:400F000031014FEA02701FBF12F07F4393F07F4F81F06051704792F0000F14BF93F07F4F704730B54FF4607401F0004521F0004120E700BF50EA010208BF704730B54FF073
:400F400000050AE050EA010208BF704730B511F0004502D5404261EB41014FF4806404F132045FEA915C3FF4DCAE4FF003025FEADC0C18BF03325FEADC0C18BF033202EBC5
:400F8000DC02C2F1200300FA03FC20FA02F001FA03FE40EA0E0021FA02F11444C1E600BF70B54FF0FF0C4CF4E06C1CEA11541DBF1CEA135594EA0C0F95EA0C0F00F0DEF8CF
:400FC0002C4481EA030621EA4C5123EA4C5350EA013518BF52EA033541F4801143F4801338D0A0FB02CE4FF00005E1FB02E506F00042E0FB03E54FF00006E1FB03569CF0F3
:40100000000F18BF4EF0010EA4F1FF04B6F5007F64F5407404D25FEA4E0E6D4146EB060642EAC62141EA55514FEAC52040EA5E504FEACE2EB4F1FD0C88BFBCF5E06F1ED84E
:40104000BEF1004F08BF5FEA500E50F1000041EB045170BD06F0004646EA010140EA020081EA0301B4EB5C04C2BFD4EB0C0541EA045170BD41F480114FF0000E013C00F3CC
:40108000AB8014F1360FDEBF002001F0004170BDC4F10004203C35DA0C341BDC04F11404C4F1200500FA05F320FA04F001FA05F240EA020001F0004221F0004110EBD3707C
:4010C00021FA04F642EB06015EEA430E08BF20EAD37070BDC4F10C04C4F1200500FA04F320FA05F001FA04F240EA020001F0004110EBD37041F100015EEA430E08BF20EA04
:40110000D37070BDC4F1200500FA05F24EEA020E20FA04F301FA05F243EA020321FA04F001F0004121FA04F220EA020000EBD3705EEA430E08BF20EAD37070BD94F0000FFE
:401140000FD101F00046400041EB010111F4801F08BF013CF7D041EA060195F0000F18BF704703F00046520043EB030313F4801F08BF013DF7D043EA0603704794EA0C0F70
:401180000CEA135518BF95EA0C0F0CD050EA410618BF52EA4306D1D181EA030101F000414FF0000070BD50EA410606BF1046194652EA430619D094EA0C0F02D150EA0136B2
:4011C00013D195EA0C0F05D152EA03361CBF104619460AD181EA030101F0004141F0FE4141F470014FF0000070BD41F0FE4141F4780170BD70B54FF0FF0C4CF4E06C1CEA4C
:4012000011541DBF1CEA135594EA0C0F95EA0C0F00F0A7F8A4EB050481EA030E52EA03354FEA013100F088804FEA03334FF0805545EA131343EA12634FEA022245EA111526
:4012400045EA10654FEA00260EF000419D4208BF964244F1FD0404F5407402D25B084FEA3202B61A65EB03055B084FEA32024FF480104FF4002CB6EB020E75EB030E22BFEA
:40128000B61A754640EA0C005B084FEA3202B6EB020E75EB030E22BFB61A754640EA5C005B084FEA3202B6EB020E75EB030E22BFB61A754640EA9C005B084FEA3202B6EBF4
:4012C000020E75EB030E22BFB61A754640EADC0055EA060E18D04FEA051545EA16754FEA06164FEAC30343EA52734FEAC2025FEA1C1CC0D111F4801F0BD141EA00014FF073
:4013000000004FF0004CB6E711F4801F04BF01430020B4F1FD0C88BFBCF5E06F3FF6AFAEB5EB030C04BFB6EB020C5FEA500C50F1000041EB045170BD0EF0004E4EEA1131B8
:4013400014EB5C04C2BFD4EB0C0541EA045170BD41F480114FF0000E013C90E645EA060E8DE60CEA135594EA0C0F08BF95EA0C0F3FF43BAF94EA0C0F0AD150EA01347FF4C9
:4013800034AF95EA0C0F7FF425AF104619462CE795EA0C0F06D152EA03353FF4FDAE1046194622E750EA410618BF52EA43067FF4C5AE50EA41047FF40DAF52EA43057FF4B8
:4013C000EBAE12E74FF0FF3C06E000BF4FF0010C02E000BF4FF0010C4DF804CD4FEA410C7FEA6C5C4FEA430C18BF7FEA6C5C1BD001B050EA410C0CBF52EA430C91EA030FA0
:4014000002BF90EA020F0020704710F1000F91EA030F58BF994208BF90422CBFD8176FEAE37040F0010070474FEA410C7FEA6C5C02D150EA013C07D14FEA430C7FEA6C5C61
:40144000D6D152EA033CD3D05DF8040B704700BF8446104662468C461946634600E000BF01B5FFF7B7FF002848BF10F1000F01BD4DF808EDFFF7F4FF0CBF012000205DF8A9
:4014800008FB00BF4DF808EDFFF7EAFF34BF012000205DF808FB00BF4DF808EDFFF7E0FF94BF012000205DF808FB00BF4DF808EDFFF7CEFF94BF012000205DF808FB00BFA4
:4014C0004DF808EDFFF7C4FF34BF012000205DF808FB00BF4A0011D212F5001211D20DD56FF47873B3EB62520ED44FEAC12343F0004343EA505323FA02F070474FF00000B9
:40150000704750EA013002D14FF0FF3070474FF0000070474FEA4102B2F1E04324BFB3F5001CDCF1FE5C0DD901F0004C4FEAC0024CEA5070B2F1004F40EB830008BF20F000
:401540000100704711F0804F21D113F13872BCBF01F00040704741F480114FEA5252C2F11802C2F1200C10FA0CF320FA02F018BF40F001004FEAC1234FEAD32303FA0CFC23
:4015800040EA0C0023FA02F34FEA4303CCE77FEA625307D150EA01331EBF4FF0FE4040F44000704701F0004040F0FE4040F40000704700BF80F0004002E000BF81F000417C
:4015C00042001FBF5FEA410392EA030F7FEA226C7FEA236C6AD04FEA1262D2EB1363C1BFD218414048404140B8BF5B42192B88BF704710F0004F40F4000020F07F4018BF34
:40160000404211F0004F41F4000121F07F4118BF494292EA030F3FD0A2F1010241FA03FC10EB0C00C3F1200301FA03F100F0004302D5494260EB4000B0F5000F13D3B0F1DA
:40164000807F06D340084FEA310102F10102FE2A51D2B1F1004F40EBC25008BF20F0010040EA03007047490040EB000010F4000FA2F10102EDD1B0FA80FCACF1080CB2EB65
:401680000C0200FA0CF0AABF00EBC25052421843BCBFD0401843704792F0000F81F4000106BF80F400000132013BB5E74FEA41037FEA226C18BF7FEA236C21D092EA030F27
:4016C00004D092F0000F08BF0846704790EA010F1CBF0020704712F07F4F04D1400028BF40F00040704712F100723CBF00F50000704700F0004343F0FE4040F400007047DF
:401700007FEA226216BF08467FEA23630146420206BF5FEA412390EA010F40F4800070474FF0000304E000BF10F0004348BF40425FEA000C08BF704743F0964301464FF0A2
:4017400000001CE050EA010208BF70474FF000030AE000BF50EA010208BF704711F0004302D5404261EB41015FEA010C02BF84460146002043F0B64308BFA3F18053A3F5A7
:401780000003BCFA8CF2083AA3EBC25310DB01FA02FC634400FA02FCC2F12002BCF1004F20FA02F243EB020008BF20F00100704702F1200201FA02FCC2F1200250EA4C0083
:4017C00021FA02F243EB020008BF20EADC7070474FF0FF0C1CEAD0521EBF1CEAD15392EA0C0F93EA0C0F6FD01A4480EA010C400218BF5FEA41211ED04FF0006343EA501039
:4018000043EA5111A0FB01310CF00040B1F5000F3EBF490041EAD3715B0040EA010062F17F02FD2A1DD8B3F1004F40EBC25008BF20F00100704790F0000F0CF0004C08BFD3
:4018400049024CEA502040EA51207F3AC2BFD2F1FF0340EAC250704740F400004FF00003013A5DDC12F1190FDCBF00F000407047C2F10002410021FA02F1C2F1200200FA80
:4018800002FC5FEA310040F1000053EA4C0308BF20EADC70704792F0000F00F0004C02BF400010F4000F013AF9D040EA0C0093F0000F01F0004C02BF490011F4000F013BDB
:4018C000F9D041EA0C018FE70CEAD15392EA0C0F18BF93EA0C0F0AD030F0004C18BF31F0004CD8D180EA010000F00040704790F0000F17BF90F0004F084691F0000F91F039
:40190000004F14D092EA0C0F01D142020FD193EA0C0F03D14B0218BF084608D180EA010000F0004040F0FE4040F40000704740F0FE4040F4400070474FF0FF0C1CEAD05231
:401940001EBF1CEAD15392EA0C0F93EA0C0F69D0A2EB030280EA010C49024FEA402037D04FF0805343EA111143EA10130CF000408B4238BF5B0042F17D024FF4000C8B422A
:4019800024BF5B1A40EA0C00B3EB510F24BFA3EB510340EA5C00B3EB910F24BFA3EB910340EA9C00B3EBD10F24BFA3EBD10340EADC001B0118BF5FEA1C1CE0D1FD2A3FF6FD
:4019C00050AF8B4240EBC25008BF20F0010070470CF0004C4CEA50207F32C2BFD2F1FF0340EAC250704740F400004FF00003013A37E792F0000F00F0004C02BF400010F4D6
:401A0000000F013AF9D040EA0C0093F0000F01F0004C02BF490011F4000F013BF9D041EA0C0195E70CEAD15392EA0C0F08D142027FF47DAF93EA0C0F7FF470AF084676E775
:401A400093EA0C0F04D14B023FF44CAF08466EE730F0004C18BF31F0004CCAD130F000427FF45CAF31F000437FF43CAF5FE700BF4FF0FF3C06E000BF4FF0010C02E000BFDD
:401A80004FF0010C4DF804CD4FEA40024FEA41037FEA226C18BF7FEA236C11D001B052EA530C18BF90EA010F58BFB2EB030088BFC81738BF6FEAE17018BF40F0010070473B
:401AC0007FEA226C02D15FEA402C05D17FEA236CE4D15FEA412CE1D05DF8040B704700BF844608466146FFE70FB5FFF7C9FF002848BF10F1000F0FBD4DF808EDFFF7F4FF4E
:401B00000CBF012000205DF808FB00BF4DF808EDFFF7EAFF34BF012000205DF808FB00BF4DF808EDFFF7E0FF94BF012000205DF808FB00BF4DF808EDFFF7D2FF94BF0120EF
:401B400000205DF808FB00BF4DF808EDFFF7C8FF34BF012000205DF808FB00BF42000ED2B2F1FE4F0BD34FF09E03B3EB126209D44FEA002343F0004323FA02F070474FF056
:401B80000000704712F1610F01D1420202D14FF0FF3070474FF00000704700BF0E4B70B51E460E4C0025E41AA410A54204D056F8253098470135F8E700F074F8084B094CCF
:401BC0001E46E41AA4100025A54204D056F8253098470135F8E770BDB01C0000B01C0000B01C0000B81C000010B5431E0A44914204D011F8014B03F8014FF8E710BD034643
:401C00000244934202D003F8011BFAE77047000000000000DEFCDC8C778E8A604338090041665D5B748E9CA6B7BBA691887E7577807E768B00004443F6A84F438F025C432F
:401C40000A17694333F37643A4D0824352988A43C3D59243A4909B43A4D0A443719DAE430000B943414443203A200000005100402000305100403000C05100401000F0516D
:401C80000040100000000140001000140140000800400140000A004C014000020050014020000000F8B500BFF8BC08BC9E4670474D0000009D040000F8B500BFF8BC08BC0A
:401CC0009E46704729000000D81C00000881FF1F280000005800000000000000CDCCCC3D3333333FCDCC4C3E9A99993E000044430000E02EC05D00001800000000366E01EF
:401D000000000000000000000000000000000000000000000000000000000000000000000000000000000000000000000000000000000000000000000000000000000000A3
:401D40000000000000000000000000000000000000000000000000000000000000000000000000000000000000000000000000000000000000000000000000000000000063
:401D80000000000000000000000000000000000000000000000000000000000000000000000000000000000000000000000000000000000000000000000000000000000023
:401DC00000000000000000000000000000000000000000000000000000000000000000000000000000000000000000000000000000000000000000000000000000000000E3
:020000040003F7
:0200000480007A
:400000000340014001410140014201400143014004480140014901400151014032203680CC30A6A0A6A0A6A022012680A6A0C860AE21000F007F7F0000000000000C0C0004
:40004000000001000000000000000000000000000000000000000000000000000000000000000000000000000000000000000000000000000000000000000000000000007F
:400080000000000000000000000000000000000000000000000000000000000000000000000000000000000000000000000000000000000000000000000000000000000040
:4000C0000000000000000000000000000000000000000000000000000000000000000000000000000000000000000000000000000000000000000000000000000000000000
:4001000000000000000000000000000000000000000000000000000000000000000000000000000000000000000000000000000000000000000000000000000000000000BF
:40014000000000000000000000000000000000000000000000000000000000000000000000000000000000000000000000000000000000000000000000000000000000007F
:0200000490006A
:0400000000004005B7
:0200000490105A
:04000000BC90ACAF55
:0200000490303A
:02000000C8E551
:0200000490402A
:4000000000000000000000000000000000000000000000000000000000000000000000000000000000000000000000000000000000000000000000000000000000000000C0
:400040000000000000000000000000000000000000000000000000000000000000000000000000000000000000000000000000000000000000000000000000000000000080
:400080000000000000000000000000000000000000000000000000000000000000000000000000000000000000000000000000000000000000000000000000000000000040
:4000C0000000000000000000000000000000000000000000000000000000000000000000000000000000000000000000000000000000000000000000000000000000000000
:0200000490501A
:0C00000000012E12306900012E1DF94E87
:00000001FF