:400000000080002011000000490600004906000008B5044B1A6803F53F5302331A6000F015FB00BFFA46004010B5054C237833B9044B13B10448AFF300800123237010BDC9
:40004000488AFF1F000000004C2B0000084B10B51BB108480849AFF300800848036803B910BD074B002BFBD0BDE81040184700BF000000004C2B00004C8AFF1F0881FF1FC1
:400080000000000008B5054A13680133136001F025F8C043C0B201F015F808BDE48AFF1F08B5012000F02AFF0020014600F080FF024B188800F09AFF08BD00BFE88AFF1FE9
:4000C00038B5104C4FF07E50216802F0ADFB0E4B186065684FF07E50294602F0E7F9A16802F0A2FB094B18602846E16802F09CFB074B18600022074B1A600022064B1A7042
:4001000038BD00BF0C81FF1FDC8AFF1FFC8AFF1FF48AFF1F9C8AFF1FCA8AFF1F38B5104C4FF07E50216902F07FFB0E4B186065694FF07E50294602F0B9F9A16902F074FB70
:40014000094B18602846E16902F06EFB074B18600022074B1A600022064B1A7038BD00BF0C81FF1FB08AFF1FA48AFF1FA08AFF1FD48AFF1FC68AFF1F01230370704700BFA9
:4001800003780BB104230370704700BFF8B50C46154601F001FF0022084B01F051FF06460F46284601F0E6FE02460B463046394602F070F802F056F92060F8BD0000704104
:4001C000F8B506460D4614461F4600F073FFC043C0B200F063FF4FF07E50314602F024FB01462B78042B3AD8DFE803F00306183929000023236032E0384602F061FA2168C2
:4002000002F056F920604FF07E5102F00BFC30B34FF07E53236002232B7020E0069802F04FFA0146206802F041F92060079902F0EFFBA0B1079B236003232B700FE008982A
:4002400002F03EFA0146206802F030F92060002102F0DEFB18B10023236000232B702068F8BD00BF30B585B01A4A1B4B196813680B4423F07F4313609B0C184AD35C184DC1
:400280002B70184B1B68184A12680092174A52680192174A1268029216481749174AFFF78FFF0446164B18602878803802F0B4F90146204602F004FA4FF0864102F0F8F8F0
:4002C00002F0EAFBC0B20F4B187000F0DFFC05B030BD00BFCC8AFF1FEC8AFF1F502B0000AC8AFF1FDC8AFF1FFC8AFF1F0C81FF1FF48AFF1F0080BB46CA8AFF1F9C8AFF1F2A
:40030000D88AFF1FF08AFF1F30B585B01B4A1C4B196813680B4423F07F431360194A02EB934393F84030184D2B70184B1B68184A12680092174A52680192174A126802929A
:4003400016481749174AFFF73BFF0446164B18602878803802F060F90146204602F0B0F94FF0864102F0A4F802F096FBC0B20F4B187000F0D7FE05B030BD00BFBC8AFF1F2B
:40038000C08AFF1F502B0000008BFF1FB08AFF1FA48AFF1F0C81FF1FA08AFF1F00A00C46C68AFF1FD48AFF1FA88AFF1FE08AFF1F08B5084B03EB8000D0F88000064B1860D7
:4003C000064945F6C052FFF7E1FE0548FFF7D4FE08BD00BF502B0000D08AFF1FEC8AFF1FCA8AFF1F08B5084B03EB8000D0F8B000064B1860064942F22832FFF7C7FE054856
:40040000FFF7BAFE08BD00BF502B0000B48AFF1FC08AFF1FC68AFF1F08B510F4004F04D142F22733984202D803E0002001E040F6FF7002F0EDF8064902F0F6F9054902F0E6
:400440003FF902F003FB0628A8BF062080B208BD006881450000E0402DE9F04F8BB062B600F0E2FB0020694900F0ECFBFFF728FEFFF754FE00F08EFD012000F03FFD64485E
:4004800000F02EFD634800F063FC634800F0ACFE624800F0F5FD00F02FFC00F079FE01F0E9FB01F0F5FB01F0BFF901F0D1F903AC5B4D0FCD0FC495E8070084E80700594B19
:4004C0001A687D2500263746574B93F82030012BFAD1544B1C68A31AAB42F5D301F0C0F980B2FFF799FF514D288001F0D9FB80B2FFF792FF4E4B18802B880AAA02EB8303F3
:4005000053F81C3C43F69825B5FBF3F50F2E0CD97A1C484B83FB0237D317C3EB670303EB4303A2EB8303DFB20026BA46B14606EB07133D4A02EB43039A8CADF80420C2F328
:40054000072101443B4B83FB0130CB17C3EB600303EB4303A1EB83035FFA83F8D2B2012A07D012B1022A13D015E04046FFF720FF11E0DFF8B4B0304BCBF80C302F48FFF7D1
:40058000FFFD2F4BCBF80C304046FFF711FF02E02A48FFF7F5FD09EB0A19234B03EB4903B3F8A421ADF80820C2F30721204B1B881944204B83FB0130CB17C3EB600303EBBF
:4005C0004303A1EB83035FFA83F8D2B2012A07D012B1022A13D015E04046FFF703FF11E0DFF84490144BC9F81C301648FFF7C8FD134BC9F81C304046FFF7F4FE02E01148CF
:40060000FFF7BEFD0136F6B222465DE7850000004C2C00006502000009030000A1000000302C0000E48AFF1F0C81FF1FC88AFF1FE88AFF1FABAAAA2A0AD7233CCA8AFF1FFF
:400640009A99993EC68AFF1FFEE700BF08B5104E104D16E029686B68AC68002204E051F8040B43F8040B0432A242F8D1E868002203E0002143F8041B04328242F9D1103514
:40068000013E002EE6D102F027FAFFF7E5FEFEE701000000BC2C000008B5124A124B1A60124A136843F40073136000230AE0032B03D80F4A52F8231000E00E490E4A42F8C3
:4006C000231001332F2BF2D90C4B1A780C4B1A70094A0C4B1A6000F039F900220A4B1A6008BD00BF0004FA050CED00E014ED00E000000000490600000080FF1FBC760040CD
:400700000481FF1F08ED00E00081FF1FFEE700BFF0B40022174611E050F82760F3B226F0FF0608E001EB420511F812406D78A5550132013BDBB2002BF4D10137122FEBD9DD
:40074000F0BC704708B50A46002102F0F6F908BDF8B5214B1B78DBB2204E3478E4B2204F3D78EDB203F007011E4A11701B090132137044F00303337045F003033B7048F2DB
:400780004042194B1A80402203F2CD731A7002331A70802103F5BC731970012313490B7002200431087013310B7082202D31087038310A700E4A137020220E4B1A70412241
:4007C0002D331A700A2000F06BF93D7034704422094B1A70F8BD00BFCF010049F8460040F94600406E5800403C510040845A0040285B00402B5B00407658004008B502F03B
:4008000091F908BD38B50024374B1C80502202331A70172202331A80182202331A707C2202331A80192502331D704FF4A67202331A8002331D70202202331A801B2202332C
:400840001A702A482A490422FFF7D8FF0222294B1A7008224FF040231A70032103F500731970254B1B78DBB224490B70244B1A8041F25122023B1A800CE0224B1B7803F0A9
:40088000010343EA440404F003044FF4F07000F0DFF8013D0DB1032CEFD115B90320FFF735FF194B4FF480721A8007221A70002216490A704820023108701A700222033B74
:4008C0001A7004220A331A70114A137843F01F031370013A137843F001031370013A137843F08003137038BD8040004000410040EC0000480043004008010049A14600409E
:4009000022420040254200400440004006400040A2430040012807D8044B53F820201844017A13780B431370704700BF542C0000012808D8044B53F820201844017A1378ED
:4009400023EA010313707047542C000070B572B62D4A137843F00403137000240AE02B4963001A1952000A44D068118AFFF7EAFE0134E4B2082CF2D94FF090402449FFF7FB
:40098000C7FE0A22234B1A70234A137843F0020313701032137843F0020313701F4C237843F040032370A2F58632513A137843F0100313701A481B490822FFF71FFF1A4870
:4009C0001A490822FFF71AFF19481A490822FFF715FF194819490822FFF710FF184A137843F008031370174E01253570FFF70AFF81233370144B1D70FFF7AAFE1348214601
:400A00000E22FFF7FBFE70BDE8460040542C00004C0000488358004003500140A043004002510040CC00004822510040D400004832510040DC00004862510040E40000489A
:400A4000224300400048004004000840B04300400230800803D000BF01380046FCD17047EFF3108072B6704780F31088704700BF01BE704710B5044605E0084B1868FFF776
:400A8000E7FFA4F50044B4F5004FF6D8034B586800FB04F0FFF7DCFF10BD00BF308AFF1F08B5034B1B7A03FB00F0FFF7D1FF08BD308AFF1F70B504460E46074B1D680F28B9
:400AC00002D90020FFF7D4FF04F00F0455F8240045F8246070BD00BF08ED00E070B504460E46074B1D681F2802D90020FFF7C0FF04F01F04103455F8240045F8246070BDED
:400B000008ED00E038B504460D46072902D90020FFF7AEFF1F2C02D90020FFF7A9FF04F01F0000F1604000F564406D01EDB2057038BD00BF024A136843F002031360704708
:400B400010E000E008B5FFF7F5FF034A136843F00103136008BD00BF10E000E020F07F40014B1860704700BF14E000E0012805D1054A136843F0040313607047024A136867
:400B800023F004031360704710E000E0024B1868C0F30040704700BF10E000E010B5FFF7F5FF01280BD107E0054B03EB84035B6803B19847013400E00024042CF4D910BD62
:400BC000648AFF1F0022014B1A60704718E000E008B5002305E00F4A02EB8302002151600133042BF7D90F200B49FFF763FF0120FFF7BCFF094BDB680948A0FB03308009F1
:400C0000FFF7ACFFFFF7DEFF4FF40042054B1A6008BD00BF648AFF1F9D0B0000308AFF1FD34D621000E100E008B5054B9B6923B9FFF7CEFF0122024B9A61FFF783FF08BD36
:400C4000648AFF1F024B03EB8003586859607047648AFF1F054A137843F0020313701032137843F002031370704700BFA8430040054B1A7802F0FD021A701A7800F00200CF
:400C800010431870704700BF24580040014B1870704700BF815B0040064B1B78C3F3810303F19243063393F83031DBB2024A1370704700BF245800400946004008B5064B8A
:400CC0001A7802F0F3021A701A7800F00C0010431870FFF7E1FF08BD2458004008B50020044B187001331870FFF7E8FF0220FFF7BFFF08BD2458004008B5074B1B7823B90F
:400D0000FFF7ECFF0122044B1A70FFF7A3FF6420FFF7BCFF08BD00BF808AFF1F014B1B68D864704708ED00E04001C0B2014B1870704700BF03E400E00822014B1A6070475B
:400D400000E100E00822014B1A60704780E100E010B50446FFF7F6FF2046FFF7DFFF0020FFF7E2FFFFF7E8FF10BD00BF10B50B4C237803F09F032370237803F0F003237043
:400D80002378184340F0100020700120FFF788FE237803F0EF03237010BD00BF2051004038B505460E4C237843F020032370237803F0BF0323700020FFF772FE237803F073
:400DC000F003237023781D4345F0100525700120FFF766FE237803F0EF03237038BD00BF2051004070B5354B1A7802F08002D2B21A7033490A7802F0F00242F00F020A7048
:400E000001310A7802F0F0020A7001310A7802F0F0020A701A7802F0DF021A701A7842F040021A704FF4CA760020FFF739FE234D2B7843F010032B700120FFF731FE214B99
:400E40001C78E4B22B7803F0EF032B700020FFF727FE04F00804E4B22B7843F010032B700120FFF71DFE2B7803F0EF032B7014B90A20FFF715FE013E0CB1002ED4D10F4A53
:400E8000137803F0BF031370137803F08003DBB213700232137803F0F00313700132137803F0F00343F00F0313700132137803F0F00343F00F03137070BD00BF20510040C1
:400EC000225100402151004010B50446FFF78AFF2009FFF765FF04F00F00FFF761FF10BD38B505460078012404E0FFF7EDFF285D0134E4B20028F8D138BD00BF10B50446B7
:400F0000FFF770FF2009FFF731FF04F00F00FFF72DFF10BD08B52820FFF7ACFD0320FFF725FF0520FFF7A6FD0320FFF71FFF0F20FFF7A0FD0320FFF719FF0120FFF79AFD94
:400F40000220FFF713FF0520FFF794FD0620FFF7D5FF0E20FFF7D2FF2C20FFF7CFFF0820FFF7CCFF0120FFF7C9FF0C20FFF7C6FF0320FFF7C3FF0520FFF77CFD08BD00BF04
:400F800008B50C20FFF7BAFF0122014B1A7008BD818AFF1F08B5054B5B7823B9FFF7BAFF0122024B5A70FFF7EBFF08BD818AFF1F08B5032819D8DFE800F002070D1381F015
:400FC0008000FFF79BFF08BDA1F14000C0B2FFF795FF08BDA1F16C00C0B2FFF78FFF08BDA1F12C00C0B2FFF789FF08BD00B585B000238DF80E30092210E0134BA3FB001363
:40100000DB08194603EB83035B00C31A303304A8104400F80C3C0846013AD2B20928ECD8094BA3FB0013DB0803EB83035B00C31A303304A9114401F80C3C01AB9818FFF791
:401040004FFF05B05DF804FBCDCCCCCC014B1B685864704708ED00E04001C0B2014B1870704700BF01E400E00222014B1A60704700E100E00222014B1A60704780E100E0CB
:4010800010B50446FFF7F6FF2046FFF7DFFF0720FFF7E2FFFFF7E8FF10BD00BF044A137803F0FB03800000F0040018431070704760510040024B1878C0F38000704700BF4E
:4010C00061510040044A137803F0BF03800100F0400018431070704760510040024B1878C0F38010704700BF61510040054A137843F0080313701032137843F0080313708B
:40110000704700BFA8430040054B1A7802F0FD021A701A7800F0020010431870704700BF2C580040014B1870704700BF835B0040064B1B78C3F3810303F19243063393F805
:401140003831DBB2024A1370704700BF2C5800400B46004008B5064B1A7802F0F3021A701A7800F00C0010431870FFF7E1FF08BD2C58004008B50020044B18700133187096
:40118000FFF7E8FF0220FFF7BFFF08BD2C58004008B5074B1B7823B9FFF7ECFF0122044B1A70FFF7A3FF6420FFF7BCFF08BD00BF838AFF1F014B1B689864704708ED00E0C5
:4011C0004001C0B2014B1870704700BF02E400E00422014B1A60704700E100E00422014B1A60704780E100E010B50446FFF7F6FF2046FFF7DFFF0220FFF7E2FFFFF7E8FFDA
:4012000010BD00BF38B59DF81040651EEDB2032D4AD80138092826D8DFE800F00525250525250D15251D0F2B02D9214800781BE02048007818E00F2B02D91F48007813E00B
:401240001E48007810E00F2B02D91D4800780BE01C48007808E00F2B02D91B48007803E01A48007800E0002040B201EB401101FB02F2D20B91B20D2B0BD8C3F10E0192B2F1
:401280000A4191B2124A02EB8402013302F8023C05E00F4B03EB84030F2203F8022C013C0B4B23F8241038BD0020FFF7E1FB38BD180100491C010049190100491D01004907
:4012C0001A0100491E0100491B0100491F010049848AFF1FF8B50746FFF7C2FB06460D4D2B7843F003032B700B4C237843F0030323700A4B1F700320FFF7D2FB2B7803F040
:40130000FC032B70237803F0FC0323703046FFF7ABFBF8BDF8460040F946004092580040F8B504460022C04B1A7401285BD13422BE4B1A70062202331A70082201331A7046
:40134000002501331D7001331D701F2201331A7002331D7001331D7001331D7001260A331E70142203F527631A70052701331F70162201331A7001331D70442203331A7083
:40138000482201331A7001331E7002331D7001331D700A2201331A70432201331A705220FFF798FF5822A24B1A7001331D7005331F70022201331A7001331D7001331D70D7
:4013C000284600F08DFA40F233329A4B1A602C20314600F0A9FAB620314600F029FB1D209549FFF77BFB022C5DD138228F4B1A70042202331A70062201331A700025013396
:401400001D7001331D703F2201331A7002331D7001331D7001331D7001260A331E70502203F527631A70272201331A702C2201331A7001331D70552203331A705A220133D0
:401440001A70052701331F7002331E70112201331A70192201331A70972201331A704420FFF738FF5822724B1A7001331D7005331F70022201331A7001331D7001331D7091
:40148000284600F02DFA4FF47A426A4B1A600820314600F049FA2520314600F0C9FA1D206649FFF71BFB032C5DD138225F4B1A70042202331A70062201331A700025013331
:4014C0001D7001331D703F2201331A7002331D7001331D7001331D7001260A331E70502203F527631A70272201331A702C2201331A7001331D70552203331A705A22013310
:401500001A70052701331F7002331E70112201331A70192201331A70972201331A704420FFF7D8FE5822424B1A7001331D7005331F70022201331A7001331D7001331D7061
:40154000284600F0CDF94FF47A423A4B1A600820314600F0E9F92520314600F069FA1D203749FFF7BBFA042C5DD138222F4B1A70042202331A70062201331A700024013382
:401580001C7001331C703F2201331A7002331C7001331C7001331C7001250A331D70502203F527631A70272201331A702C2201331A7001331C70552203331A705A22013357
:4015C0001A70052601331E7002331D70112201331A70192201331A70972201331A704420FFF778FE5822124B1A7001331C7005331E70022201331A7001331C7001331C7038
:40160000204600F06DF94FF47A420A4B1A600820294600F089F92520294600F009FA1D200849FFF75BFAF8BD848AFF1F004E004094580040048BFF1FB1180000B5180000B9
:40164000B9180000BD1800002DE9F04182B0394D4FF0010885F80080374E00247474102000F050F9102000F0D1F91D200721FFF749FA0427314B1F7001331C7007331C7042
:401680002F4A137843F0180313702E4B1C7003F2F5231C7001331C700A22A3F209331A7001331C7002331C70122205331A70132201331A7004331C701422A3F68C231A703B
:4016C000CDF80080022048F66B514FF400420C23FFF798FD02230093204649F2DA014FF400421023FFF78EFD03230093204649F2DA014FF400421023FFF784FD009720467C
:4017000049F2DA014FF400421023FFF77BFD2B7806EB830313F8022C0B4B1A702B78013B36F82320094B1A802878FFF7F9FD02B0BDE8F081408AFF1F848AFF1F9658004066
:40174000075B0040935800400E4E00400C4E004070B5FFF785F906462A4B1B782A4B1A7842F001021A701A7842F010021A7010331A7842F001021A701A7842F010021A705F
:40178000224D2B7843F002032B70214C237843F0020323701F4A137843F0030313700320FFF77EF92B7803F0FD032B70237803F0FD032370184A137843F0060313707A2297
:4017C000164B1A70164A137843F0010313701032137843F0010313700F3A137843F0010313701032137843F0010313704FF000530C4A1360A2F5C07213603046FFF734F98D
:4018000070BD00BF408AFF1FAA430040F8460040F9460040915800407758004082580040A143004080E200E008B5084B9B7C4BB9064BDB7C13F0FF0F01D1FFF705FF01221F
:40184000024B9A74FFF784FF08BD00BF848AFF1F024A137843F0010313707047004E00400E4B1B7803F00303012B03D80C4B188880B209E00A4A12780A49087842EA002013
:40188000032B01D1084B1B78084B1B7C13F0FF0F02D00022054B5A7400B27047144E0040104E0040114E0040124E0040848AFF1F704700BF704700BF704700BF704700BF49
:4018C00010B5002404E02046FFF732F80134E4B2012CF8D9FF22014B1A7010BD418AFF1F10B50446FFF7ECFF2046FFF713F8014B1C7010BD418AFF1F014B188880B2704765
:4019000080400040034B1A7800F0F80010431870704700BF82400040024B187800F00700704700BF8240004070B505460E46FFF7F3FF0446FFF7E0FF854256D02B4B1B787F
:4019400003F0010294B900B185B938B9284B1D80284A137803F0BF03137070BD254A137843F040031370224B1D8070BD22B3002321490B7001240F310C7004310B700C39F5
:401980000B7803F07F030B701A4B1B7813F0080F00D08DB9194B18800721013B1970164B1B7813F0010FFAD110490B7803F0FE030B700021104B19700C4B1B7813F0010F84
:4019C0000DD00E4B1D800EB1032200E001220A4B1A70094B1B7813F0010FFAD170BD044B1D8002490B7813430B7070BDA2430040804000408240004001400040024000407A
:401A0000014B188880B2704700410040034B1A7800F0F80010431870704700BF02410040024B187800F00700704700BF0241004070B505460E46FFF7F3FF0446FFF7E0FF1C
:401A4000854256D02B4B1B7803F0010294B900B185B938B9284B1D80284A137803F0BF03137070BD254A137843F040031370224B1D8070BD22B3002321490B70012413316B
:401A80000C7004390B7008390B7803F07F030B701A4B1B7813F0080F00D08DB9194B18800721013B1970164B1B7813F0010FFAD110490B7803F0FE030B700021104B19700B
:401AC0000C4B1B7813F0010F0DD00E4B1D800EB1032200E001220A4B1A70094B1B7813F0010FFAD170BD044B1D8002490B7813430B7070BDA143004000410040024100407E
:401B0000014000400240004008B50A280FD00C2802D0082806D102E04FF4805209E04FF4807206E00020FEF7A3FF002201E04FF480620021094B198042F2107303FB02F335
:401B400003F6C413064A82FB0302DB17C3EBE223044A1360044B198008BD00BF0C8BFF1FAD8BDB68108BFF1F148BFF1F10B5FEF777FF04461E4A137843F0020313701032E1
:401B8000137843F002031370193A137843F0020313701032137843F00203137002F5AA521932137843F0030313700422114B1A70013B1A7842F040021A701A7802F0FC02DF
:401BC0001A70C822053B1A700222A3F59753123B1A70094A137843F0080313700A20FEF75FFF0122054B1A602046FEF73DFF10BDAB4300400E5900402F5B004080E200E0DC
:401C000010B504460A280DD00C2802D0082804D101E0C42207E0442205E00020FEF728FFC42200E08422034B1A702046FFF76CFF10BD00BF0A59004008B5102000F03EF8F9
:401C400000200721FEF75EFF00200749FEF746FF064A137843F0060313700C20FFF7D0FF0022034B1A8008BDB91C000009590040168BFF1F08B5054B1B7823B9FFF7DCFF43
:401C80000122024B1A70FFF771FF08BD988AFF1F024A137843F001031370704708590040034B1B88034A1088181A00B2704700BFA25B0040148BFF1F704700BF034B1A7856
:401CC00000F0F80010431870704700BF8640004081F0004102E000BF83F0004330B54FEA41044FEA430594EA050F08BF90EA020F1FBF54EA000C55EA020C7FEA645C7FEACD
:401D0000655C00F0E2804FEA5454D4EB5555B8BF6D420CDD2C4480EA020281EA030382EA000083EA010180EA020281EA0303362D88BF30BD11F0004F4FEA01314FF4801CFD
:401D40004CEA113102D0404261EB410113F0004F4FEA03334CEA133302D0524263EB430394EA050F00F0A780A4F10104D5F1200E0DDB02FA0EFC22FA05F2801841F10001CF
:401D800003FA0EF2801843FA05F359410EE0A5F120050EF1200E012A03FA0EFC28BF4CF0020C43FA05F3C01851EBE37101F0004507D54FF0000EDCF1000C7EEB00006EEBEF
:401DC0000101B1F5801F1BD3B1F5001F0CD349085FEA30004FEA3C0C04F101044FEA445212F5800F80F09A80BCF1004F08BF5FEA500C50F1000041EB045141EA050130BD8E
:401E00005FEA4C0C404141EB010111F4801FA4F10104E9D191F0000F04BF01460020B1FA81F308BF2033A3F10B03B3F120020CDA0C3208DD02F1140CC2F10C0201FA0CF02B
:401E400021FA02F10CE002F11402D8BFC2F1200C01FA02F120FA0CFCDCBF41EA0C019040E41AA2BF01EB0451294330BD6FEA04041F3C1CDA0C340EDC04F11404C4F120027D
:401E800020FA04F001FA02F340EA030021FA04F345EA030130BDC4F10C04C4F1200220FA02F001FA04F340EA0300294630BD21FA04F0294630BD94F0000F83F4801306BFD5
:401EC00081F480110134013D4EE77FEA645C18BF7FEA655C29D094EA050F08BF90EA020F05D054EA000C04BF1946104630BD91EA030F1EBF0021002030BD5FEA545C05D142
:401F00004000494128BF41F0004130BD14F580043CBF01F5801130BD01F0004545F0FE4141F470014FF0000030BD7FEA645C1ABF194610467FEA655C1CBF0B46024650EA8A
:401F4000013406BF52EA033591EA030F41F4002130BD00BF90F0000F04BF0021704730B54FF4806404F132044FF000054FF0000150E700BF90F0000F04BF0021704730B57A
:401F80004FF4806404F1320410F0004548BF40424FF000013EE700BF42004FEAE2014FEA31014FEA02701FBF12F07F4393F07F4F81F06051704792F0000F14BF93F07F4FE8
:401FC000704730B54FF4607401F0004521F0004120E700BF50EA010208BF704730B54FF000050AE050EA010208BF704730B511F0004502D5404261EB41014FF4806404F129
:4020000032045FEA915C3FF4DCAE4FF003025FEADC0C18BF03325FEADC0C18BF033202EBDC02C2F1200300FA03FC20FA02F001FA03FE40EA0E0021FA02F11444C1E600BF13
:4020400070B54FF0FF0C4CF4E06C1CEA11541DBF1CEA135594EA0C0F95EA0C0F00F0DEF82C4481EA030621EA4C5123EA4C5350EA013518BF52EA033541F4801143F4801334
:4020800038D0A0FB02CE4FF00005E1FB02E506F00042E0FB03E54FF00006E1FB03569CF0000F18BF4EF0010EA4F1FF04B6F5007F64F5407404D25FEA4E0E6D4146EB06063D
:4020C00042EAC62141EA55514FEAC52040EA5E504FEACE2EB4F1FD0C88BFBCF5E06F1ED8BEF1004F08BF5FEA500E50F1000041EB045170BD06F0004646EA010140EA0200F1
:4021000081EA0301B4EB5C04C2BFD4EB0C0541EA045170BD41F480114FF0000E013C00F3AB8014F1360FDEBF002001F0004170BDC4F10004203C35DA0C341BDC04F11404F7
:40214000C4F1200500FA05F320FA04F001FA05F240EA020001F0004221F0004110EBD37021FA04F642EB06015EEA430E08BF20EAD37070BDC4F10C04C4F1200500FA04F3F1
:4021800020FA05F001FA04F240EA020001F0004110EBD37041F100015EEA430E08BF20EAD37070BDC4F1200500FA05F24EEA020E20FA04F301FA05F243EA020321FA04F01F
:4021C00001F0004121FA04F220EA020000EBD3705EEA430E08BF20EAD37070BD94F0000F0FD101F00046400041EB010111F4801F08BF013CF7D041EA060195F0000F18BF64
:40220000704703F00046520043EB030313F4801F08BF013DF7D043EA0603704794EA0C0F0CEA135518BF95EA0C0F0CD050EA410618BF52EA4306D1D181EA030101F0004165
:402240004FF0000070BD50EA410606BF1046194652EA430619D094EA0C0F02D150EA013613D195EA0C0F05D152EA03361CBF104619460AD181EA030101F0004141F0FE4167
:4022800041F470014FF0000070BD41F0FE4141F4780170BD70B54FF0FF0C4CF4E06C1CEA11541DBF1CEA135594EA0C0F95EA0C0F00F0A7F8A4EB050481EA030E52EA0335C7
:4022C0004FEA013100F088804FEA03334FF0805545EA131343EA12634FEA022245EA111545EA10654FEA00260EF000419D4208BF964244F1FD0404F5407402D25B084FEA3C
:402300003202B61A65EB03055B084FEA32024FF480104FF4002CB6EB020E75EB030E22BFB61A754640EA0C005B084FEA3202B6EB020E75EB030E22BFB61A754640EA5C0087
:402340005B084FEA3202B6EB020E75EB030E22BFB61A754640EA9C005B084FEA3202B6EB020E75EB030E22BFB61A754640EADC0055EA060E18D04FEA051545EA16754FEA54
:4023800006164FEAC30343EA52734FEAC2025FEA1C1CC0D111F4801F0BD141EA00014FF000004FF0004CB6E711F4801F04BF01430020B4F1FD0C88BFBCF5E06F3FF6AFAE9C
:4023C000B5EB030C04BFB6EB020C5FEA500C50F1000041EB045170BD0EF0004E4EEA113114EB5C04C2BFD4EB0C0541EA045170BD41F480114FF0000E013C90E645EA060EFC
:402400008DE60CEA135594EA0C0F08BF95EA0C0F3FF43BAF94EA0C0F0AD150EA01347FF434AF95EA0C0F7FF425AF104619462CE795EA0C0F06D152EA03353FF4FDAE1046B9
:40244000194622E750EA410618BF52EA43067FF4C5AE50EA41047FF40DAF52EA43057FF4EBAE12E74A0011D212F5001211D20DD56FF47873B3EB62520ED44FEAC12343F01D
:40248000004343EA505323FA02F070474FF00000704750EA013002D14FF0FF3070474FF00000704780F0004002E000BF81F0004142001FBF5FEA410392EA030F7FEA226CBF
:4024C0007FEA236C6AD04FEA1262D2EB1363C1BFD218414048404140B8BF5B42192B88BF704710F0004F40F4000020F07F4018BF404211F0004F41F4000121F07F4118BFA7
:40250000494292EA030F3FD0A2F1010241FA03FC10EB0C00C3F1200301FA03F100F0004302D5494260EB4000B0F5000F13D3B0F1807F06D340084FEA310102F10102FE2AD2
:4025400051D2B1F1004F40EBC25008BF20F0010040EA03007047490040EB000010F4000FA2F10102EDD1B0FA80FCACF1080CB2EB0C0200FA0CF0AABF00EBC25052421843A6
:40258000BCBFD0401843704792F0000F81F4000106BF80F400000132013BB5E74FEA41037FEA226C18BF7FEA236C21D092EA030F04D092F0000F08BF0846704790EA010FB6
:4025C0001CBF0020704712F07F4F04D1400028BF40F00040704712F100723CBF00F50000704700F0004343F0FE4040F4000070477FEA226216BF08467FEA23630146420201
:4026000006BF5FEA412390EA010F40F4800070474FF0000304E000BF10F0004348BF40425FEA000C08BF704743F0964301464FF000001CE050EA010208BF70474FF0000324
:402640000AE000BF50EA010208BF704711F0004302D5404261EB41015FEA010C02BF84460146002043F0B64308BFA3F18053A3F50003BCFA8CF2083AA3EBC25310DB01FA8F
:4026800002FC634400FA02FCC2F12002BCF1004F20FA02F243EB020008BF20F00100704702F1200201FA02FCC2F1200250EA4C0021FA02F243EB020008BF20EADC70704763
:4026C0004FF0FF0C1CEAD0521EBF1CEAD15392EA0C0F93EA0C0F6FD01A4480EA010C400218BF5FEA41211ED04FF0006343EA501043EA5111A0FB01310CF00040B1F5000FF0
:402700003EBF490041EAD3715B0040EA010062F17F02FD2A1DD8B3F1004F40EBC25008BF20F00100704790F0000F0CF0004C08BF49024CEA502040EA51207F3AC2BFD2F188
:40274000FF0340EAC250704740F400004FF00003013A5DDC12F1190FDCBF00F000407047C2F10002410021FA02F1C2F1200200FA02FC5FEA310040F1000053EA4C0308BFFE
:4027800020EADC70704792F0000F00F0004C02BF400010F4000F013AF9D040EA0C0093F0000F01F0004C02BF490011F4000F013BF9D041EA0C018FE70CEAD15392EA0C0FA0
:4027C00018BF93EA0C0F0AD030F0004C18BF31F0004CD8D180EA010000F00040704790F0000F17BF90F0004F084691F0000F91F0004F14D092EA0C0F01D142020FD193EA15
:402800000C0F03D14B0218BF084608D180EA010000F0004040F0FE4040F40000704740F0FE4040F4400070474FF0FF0C1CEAD0521EBF1CEAD15392EA0C0F93EA0C0F69D0F0
:40284000A2EB030280EA010C49024FEA402037D04FF0805343EA111143EA10130CF000408B4238BF5B0042F17D024FF4000C8B4224BF5B1A40EA0C00B3EB510F24BFA3EB8D
:40288000510340EA5C00B3EB910F24BFA3EB910340EA9C00B3EBD10F24BFA3EBD10340EADC001B0118BF5FEA1C1CE0D1FD2A3FF650AF8B4240EBC25008BF20F00100704753
:4028C0000CF0004C4CEA50207F32C2BFD2F1FF0340EAC250704740F400004FF00003013A37E792F0000F00F0004C02BF400010F4000F013AF9D040EA0C0093F0000F01F093
:40290000004C02BF490011F4000F013BF9D041EA0C0195E70CEAD15392EA0C0F08D142027FF47DAF93EA0C0F7FF470AF084676E793EA0C0F04D14B023FF44CAF08466EE7A7
:4029400030F0004C18BF31F0004CCAD130F000427FF45CAF31F000437FF43CAF5FE700BF4FF0FF3C06E000BF4FF0010C02E000BF4FF0010C4DF804CD4FEA40024FEA4103FF
:402980007FEA226C18BF7FEA236C11D001B052EA530C18BF90EA010F58BFB2EB030088BFC81738BF6FEAE17018BF40F0010070477FEA226C02D15FEA402C05D17FEA236C39
:4029C000E4D15FEA412CE1D05DF8040B704700BF844608466146FFE70FB5FFF7C9FF002848BF10F1000F0FBD4DF808EDFFF7F4FF0CBF012000205DF808FB00BF4DF808ED2F
:402A0000FFF7EAFF34BF012000205DF808FB00BF4DF808EDFFF7E0FF94BF012000205DF808FB00BF4DF808EDFFF7D2FF94BF012000205DF808FB00BF4DF808EDFFF7C8FF0F
:402A400034BF012000205DF808FB00BF4FEA4002B2F1FE4F0FD34FF09E03B3EB12620DD94FEA002343F0004310F0004F23FA02F018BF404270474FF00000704712F1610F3D
:402A800001D1420205D110F0004008BF6FF0004070474FF00000704742000ED2B2F1FE4F0BD34FF09E03B3EB126209D44FEA002343F0004323FA02F070474FF0000070478A
:402AC00012F1610F01D1420202D14FF0FF3070474FF00000704700BF0E4B70B51E460E4C0025E41AA410A54204D056F8253098470135F8E700F0D0F8084B094C1E46E41A79
:402B0000A4100025A54204D056F8253098470135F8E770BDA42C0000A42C0000A42C0000AC2C000010B5431E0A44914204D011F8014B03F8014FF8E710BD0346024493422A
:402B400002D003F8011BFAE77047000000000000DCF1F4EEDCB78B7375838E928C7A5F494345402A0C000020476167625A585D6976838C949A9FA6AEB6B9B7B0A499928EEE
:402B800088817C797675797F7F7C7C7D797789B385827A6D5E5B78A8BDB6B6C0CCDFF3FDFFF6DFBE99785E4C391A0A07111F2E353638363F5264655B65828D94A3AAB1B571
:402BC000B7BEC4C7BFAE92705F584E4446536B8100004443F6A84F438F025C430A17694333F37643A4D0824352988A43C3D59243A4909B43A4D0A443719DAE430000B94340
:402C000000004443F6A84F438F025C430A17694333F37643A4D0824352988A43C3D59243A4909B43A4D0A443719DAE430000B9433C0000004B0000005A00000069000000F2
:402C4000780000008700000096000000414443203A200000035B00402443004040000000105100401000405100402000C05100401000F051004010000000014000100014FF
:402C80000140000800400140000A004C014000020050014020000000F8B500BFF8BC08BC9E4670474D00000099060000F8B500BFF8BC08BC9E46704729000000D02C0000F1
:402CC0000881FF1F40090000D00000000000000000000000CDCCCC3D3333333FCDCC4C3E9A99993E0AD7A33C3333333F0000003F9A99993E0100000003000300030003007F
:402D000003000300030003000300030003000009020000070200030000050100000401000005010000010100000A010000090100000A010000000100000A0100000901001E
:402D4000000A010000010100000A010000090100000A01000000010000090100000A010000000100000301000005010000090100000A0100020003000300030003000300DF
:402D800003000300030003000300030003000300030003000300030003000300030003000300030003000300030003000300030003000300030003000300030003000300B3
:402DC0000300030003000300030003000300030003000300030003000300030003000300030003000300030003000300030003000300030003000300030003000300030073
:402E00000300030003000300030003000300030003000300030003000300030003000300030003000300030003000300030003000300030003000300030003000300030032
:402E40000300030003000300030003000300030003000300030003000000000000000000000000000000000000000000000000000000000000000000000502000300030021
:402E80000303020003000300000A020003000300030302000300030000050200030003000303020003000300000A020003000300030302000300030000050200030003009C
:402EC0000303020003000300000A020003000300030302000300030000050200030003000303020003000300000A020003000300030302000300030000050200030003005C
:402F00000303020003000300000A020003000300030302000300030000050200030003000303020003000300000A020003000300030302000300030000050200030003001B
:402F40000303020003000300000A020003000300030302000300030000050200030003000303020003000300000A02000300030003030200030003000005020003000300DB
:402F80000303020003000300000A020003000300030302000300030000050200030003000303020003000300000A020003000300030302000300030000050200030003009B
:402FC0000303020003000300000A020003000300030302000300030000050200030003000303020003000300000A020003000300030302000300030003000300030003005C
:403000000300030003000300030003000300030003000300000602000006030003000300010503000103030001060300030003000103030003000200000603000300030020
:40304000010A0300010603000108030003000300010603000300020000050300010303000102030001030300010503000300030003000300030002000006030003000300D2
:403080000105030001030300010603000300030001030300030002000006030003000300010A0300010603000108030003000300010603000300020000050300010303008D
:4030C000010203000103030001050300030003000300030003000200000603000300030001050300010303000106030003000300010303000300020000060300030003005F
:40310000010A030001060300010803000300030001060300030002000005030001030300010203000103030001050300030003000300030003000200000603000300030011
:403140000105030001030300010603000300030001030300030002000006030003000300010A030001060300010803000300030001060300030002000300030003000300CF
:4031800003000300030003000300030003000300030003000300030003000300030003000300030003000300030003000300030003000300030003000300030003000300AF
:4031C000030003000300030003000300030003000300030003000300030003000300030003000300030003000300030003000300030003000300030003000300030003006F
:40320000030003000300030003000300030003000300030003000300030003000300030003000300030003000300030003000300030003000300030003000300030003002E
:4032400003000300030003000300030003000300030003000300030003000300030003000300030003000300030003000300030003000300030003000300030003000300EE
:4032800003000300030003000300030003000300030003000300030003000300030003000300030003000300030003000300030003000300030003000300030003000300AE
:4032C000030003000300030003000300030003000300030003000300030003000300030003000300030003000300030003000300030003000300030000050100010B010A5D
:40330000010801050108010A01050100010B010A010801050108020000050100010B010A010801050108010A01050100010B010A010801050108020000050100010B010A9D
:40334000010801050108010A01050100010B010A010801050108020000050100010B010A010801050108010A01050100010B010A010801050108020000050100010B010A5D
:40338000010801050108010A01050100010B010A010801050108020000050100010B010A010801050108010A01050100010B010A010801050108020000050100010B010A1D
:4033C000010801050108010A01050100010B010A010801050108020000050100010B010A010801050108010A01050100010B010A010801050108020000050100010B010ADD
:40340000010801050108010A01050100010B010A010801050108020000050100010B010A010801050108010A01050100010B010A010801050108020000050100010B010A9C
:40344000010801050108010A01050100010B010A010801050108020000050100010B010A010801050108010A01050100010B010A010801050108020000080008000803005E
:40348000000303000300000203000002030000000000000800000002000800080008030000030300030000020300000203000000000000080000000200080008000803009C
:4034C000000303000300000203000002030000000000000800000002000800080008030000030300030000020300000203000000000000080000000200080008000803005C
:40350000000303000300000203000002030000000000000800000002000800080008030000030300030000020300000203000000000000080000000200080008000803001B
:4035400000030300030000020300000203000000000000080000000200080008000803000003030003000002030000020300000000000008000000020008000800080300DB
:40358000000303000300000203000002030000000000000800000002000800080008030000030300030000020300000203000000000000080000000200080008000803009B
:4035C00000030300030000020300000203000000000000080000000200080008000803000003030003000002030000020300000000000008000000020000E02EC05D00004B
:403600001800000000366E0101FF000000000000000000000000000000000000000000000000000000000000000000000000000000000000000000000000000000000000CD
:40364000000000000000000000000000000000000000000000000000000000000000000000000000000000000000000000000000000000000000000000000000000000004A
:40368000000000000000000000000000000000000000000000000000000000000000000000000000000000000000000000000000000000000000000000000000000000000A
:4036C00000000000000000000000000000000000000000000000000000000000000000000000000000000000000000000000000000000000000000000000000000000000CA
:403700000000000000000000000000000000000000000000000000000000000000000000000000000000000000000000000000000000000000000000000000000000000089
:020000040003F7
:0200000480007A
:40000000015B004001090140040A0140010B014002150140021B01400540014004410140044201400443014002440140014501400346014003470140084801400949014025
:40004000054C0140044D0140015101402F84B502B802BE01D804DF011D02EC30EE08EC30EE083204332035403608CCF096089D40A608A72096089D40A608A72096089D4094
:40008000A608A7207C01DE01940145089401D001A508B401EC0820802510260896089D40A608A720C8E01A081D4096089D40AF20B040B510C6C0EE101F803401A508C601EC
:4000C000CC01AF80B001B508EC0C00FF0000000000004400007F7F0000000000000000000000C400004C4C0000000000B60018010000000000000000000000000000000032
:4001000000000000000000000000000000000000000000000000000000000000000000000000000000000000000000000000000000000000000000000000000000000000BF
:40014000000000000000000000000000000000000000000000000000000000000000000000000000000000000000000000000000000000000000000000000000000000007F
:40018000000000000000000000000000000000000000000000000000000000000000000000000000000000000000000000000000000000000000000000000000000000003F
:4001C00000000000000000000000000000000000000000000000000000000000000000000000000000000000000000000000000000000000000000000000000000000000FF
:0200000490006A
:0400000000004005B7
:0200000490105A
:04000000BC90ACAF55
:0200000490303A
:020000007C90F2
:0200000490402A
:4000000000000000000000000000000000000000000000000000000000000000000000000000000000000000000000000000000000000000000000000000000000000000C0
:400040000000000000000000000000000000000000000000000000000000000000000000000000000000000000000000000000000000000000000000000000000000000080
:400080000000000000000000000000000000000000000000000000000000000000000000000000000000000000000000000000000000000000000000000000000000000040
:4000C0000000000000000000000000000000000000000000000000000000000000000000000000000000000000000000000000000000000000000000000000000000000000
:0200000490501A
:0C00000000012E12306900012E23ACF923
:00000001FF